B010201802150075    201802151344130000000000000000000000                                                                                                    000051200071
05005067267500144104     1200512080108010608726490000512020180209           000000002000986DAYANA TESTES LOLAPJ 0   Porto Alegre BR 751200000  007100704746 0   20180215
050100000       000000                                                   071    000000067700001PGW00DD6000000000000 000000006000000300200000J87089896000105000000000000 
0502            BR    030000000000000000000990                                                                                                                          
0505000000000000000000000006000986          0000A000000000000                                                                                                           
05070000 180110E0F0C8076000000005C6AC27B00145C00FAA30B3A1F47EF2700  4280048000020300  000000006000                                                                      
05005067230000009011     1700512080370           0000512020180206           000000150000986LOLA CERTO MANO          Porto Alegre BR 472200005  00710067453750 0220180215
050100000       000000                                                   070    000000067700001PGW00DD6000000000000 000000000000000200000000J80651692000177000000000000 
0502            BR    002000000000000000000                                                                                                                             
0505000000000007507000000150000   00        0000 000000150000                                                                                                           
05005067230000009011     1200512080108010608774080000512020180110           000000010020986DAYANA TESTES LOLA J 0   Porto Alegre BR 751200000  007100704537 0   20180215
050100000       000000                                                   072    000000067700001PGW00DD5000000000000 000000050100000500200000J87089896000105000000000000 
0502            BR    030000000000000000000990                                                                                                                          
BZ100075000000000000000000000000000017400000000285784400000000000000000000000000000000000000000000000000070000000000000000000000000                                    1
