0020180311ABCDEFGHIJKLMNOPQRSTUVWYZABCDEFGHIJKLMNOPQRSTUVWYZABCDEFGHIJKL00000001
0120180301000314000000000100ABCDEFGHIJKLMNOPQRSTUVWYZABCDEFGHIJKLMNOPQRS00000002
0120180228000042000000000200ABCDEFGHIJKLMNOPQRSTUVWYZABCDEFGHIJKLMNOPQRS00000003
02BRASIL                        000000150OABCDEFGHIJKLMNOPQRSTUVWYZABCDE00000004
02CHILE                         0000000500ABCDEFGHIJKLMNOPQRSTUVWYZABCDE00000004
9000000002FGHIJKLMNOPQRSTUVWYZABCDEFGHIJKLMNOPQRSTUVWYZABCDEFGHIJKLMNOPQ00000005